:100000000C942A000C9447000C9447000C94470071
:100010000C9447000C9447000C9447000C94470044
:100020000C9447000C9447000C9447000C94470034
:100030000C9447000C9447000C9447000C94470024
:100040000C9447000C9447000C9447000C94470014
:100050000C94470011241FBECFE5D8E0DEBFCDBF12
:1000600011E0A0E6B0E0E2E0FCE002C005900D92F5
:10007000AC35B107D9F711E0ACE5B1E001C01D9294
:10008000A236B107E1F70E947C020C94FF050C94A4
:100090000000883081F1893080F4843021F185308E
:1000A00038F48230C1F18330E0F48130A9F517C013
:1000B0008630E9F08730E8F418C08C3021F18D30BB
:1000C00028F48A30E1F08B30E0F417C08E30E9F08C
:1000D0008E3010F18F30D9F08031F1F41AC087E002
:1000E000089589E0089585E2089584E0089585E003
:1000F000089586E008958AE2089581E0089582E0F7
:10010000089583E008958DE2089580E008958DE3D9
:1001100008958BE2089588E0089580E060E170E042
:10012000E1E0F0E0A0E09B01082E02C0220F331FA7
:100130000A94E2F72ABB20952BBBC89B0DC09F01F8
:10014000922F49B350E0022E02C0559547950A946C
:10015000E2F740FD09C001C090E08F5F990F990F51
:10016000890F0E94490008952F5F3F4F24303105C9
:1001700039F78F5F8430B8F28A2FD5CF2F923F9214
:100180004F925F926F927F928F929F92AF92BF92A7
:10019000CF92DF92EF92FF920F931F93CF93DF9353
:1001A000CDB7DEB727970FB6F894DEBF0FBECDBF31
:1001B0008D832DB73EB73F832E83882E99244DB76C
:1001C0005EB7481959090FB6F8945EBF0FBE4DBF10
:1001D0002DB63EB60894211C311C882309F47CC03E
:1001E000610100E02401882E0E948D00D6018D93CC
:1001F0006D012FEF32E547E0215030404040E1F7FC
:1002000000C000000F5F081579F74201F1015D8120
:10021000E50FF11D31974080552466247724C401F1
:100220000197280E391E8824992454018394198239
:100230001A821B821C8201E010E020E030E033C013
:10024000089421083108D1014C9055246624772464
:1002500081149104A104B104E9F0CC24DD247601D9
:10026000C39401E010E020E030E0C901B8012AE0C9
:1002700030E040E050E00E949B050894C11CD11C76
:10028000E11CF11C8C149D04AE04BF0480F78B01AB
:100290009C0104C001E010E020E030E00894811CE3
:1002A000911CA11CB11CC301B201A90198010E94BB
:1002B0009B05DC01CB0129813A814B815C81280FB0
:1002C000391F4A1F5B1F29833A834B835C833D811F
:1002D000831608F4B5CF04C019821A821B821C82CF
:1002E00069817A818B819C814E815F810FB6F89400
:1002F0005EBF0FBE4DBF27960FB6F894DEBF0FBE90
:10030000CDBFDF91CF911F910F91FF90EF90DF90C4
:10031000CF90BF90AF909F908F907F906F905F90A5
:100320004F903F902F90089595989698EFECF7E0B6
:100330003197F1F700C00000979AEFECF7E03197A2
:10034000F1F700C00000982F907F95BBEFECF7E02D
:100350003197F1F700C000009798EFECF7E0319784
:10036000F1F700C00000979AEFECF7E03197F1F752
:1003700000C0000090E082959295907F9827807F42
:10038000982785BB8FEC97E00197F1F700C000003C
:100390009798EFECF7E03197F1F700C0000008956F
:1003A00081B3806E81BB84B3806F84BB82E00E9486
:1003B000940188E20E9494018CE00E94940181E003
:1003C0000E9494010895959A9698EFECF7E0319782
:1003D000F1F700C00000979AEFECF7E03197F1F7E2
:1003E00000C00000982F907F95BBEFECF7E03197AD
:1003F000F1F700C000009798EFECF7E03197F1F7C4
:1004000000C00000979AEFECF7E03197F1F700C0D9
:10041000000090E082959295907F9827807F9827A2
:1004200085BB8FEC97E00197F1F700C0000097982B
:10043000EFECF7E03197F1F700C0000008950F935B
:100440001F93CF938C01FC018081882351F0C0E081
:100450000E94E301CF5FF801EC0FF11D808188233A
:10046000B9F7CF911F910F910895813039F0813004
:1004700070F0823031F0833059F406C0962F905CD2
:1004800007C0962F905F04C0962F905B01C0962FF7
:10049000892F80680E9494010895CF93DF93EA0129
:1004A0000E943502CE010E941F02DF91CF91089574
:1004B00081E00E9494010895CF93DF93CDB7DEB71A
:1004C00060970FB6F894DEBF0FBECDBFDC01CB0145
:1004D000BE016F5F7F4F4AE050E00E94BA05CE0137
:1004E00001960E941F0260960FB6F894DEBF0FBE01
:1004F000CDBFDF91CF910895B89A0E9423030E9447
:10050000D00181E00E942D030E94310380935C01A1
:10051000893381F00E94790381E00E942D03CDE5AB
:10052000D1E08E010B5F1F4F89910E942D03C017F0
:10053000D107D1F7CAE7D0E007E810E00F2EFDE5BC
:100540004F2EF1E05F2EF02D0F2EF5E0CF2EDD24A3
:10055000F02DC40CD51C0F2EF0E6AF2EF0E0BF2E10
:10056000F02D0F2EF8E68F2EF0E09F2EF02D0F2E9F
:10057000F2E76F2EF0E07F2EF02D0E946A030E94BA
:100580008D002FE73AE146E0215030404040E1F74E
:1005900000C000008A3281F50E947704813021F585
:1005A00085E20E942D030E9431038839E1F70E9401
:1005B0005802C5010E941F0281E060E0A4010E9470
:1005C0004D020E9431038034E1F70E945802C501B8
:1005D0000E941F0281E060E0A3010E944D020E9480
:1005E00031038737E1F7C9CF88E80E942D030E94C5
:1005F00031038737E1F7C1CF8B3289F40E9425059B
:10060000813009F0BACF0E942D037201D7018D917C
:100610007D010E942D03EC14FD04C1F7AECF0E94B2
:100620005802CE010E941F0281E060E0A8010E94F2
:100630004D022FEF39E648E1215030404040E1F7CC
:1006400000C000009ACF82E08BB988E18AB986E8C1
:1006500080BD10BC87E689B908955D9BFECF8CB93B
:1006600008955F9BFECF8CB108950F931F93CF9396
:100670008C01FC018081882351F0C0E00E942D0391
:10068000CF5FF801EC0FF11D80818823B9F7CF917E
:100690001F910F910895FF920F931F93CF93DF93B4
:1006A0008C010E943103F8018083833259F0FF24CA
:1006B000F394E801CF0DD11D0E943103888383326A
:1006C000B9F701C0E8011882DF91CF911F910F9116
:1006D000FF9008950E94580283E990E00E941F0253
:1006E00081E060E00E9435028FE990E00E941F02E5
:1006F00008952F923F924F925F926F927F928F92C6
:100700009F92AF92BF92CF92DF92EF92FF920F93A0
:100710001F93CF93DF9300D000D00F92CDB7DEB7F9
:10072000FE01319685E0DF011D928A95E9F700E030
:100730000F2EF1EB8F2EF0E09F2EF02D0F2EFDE50A
:10074000CF2EF1E0DF2EF02D0F2EF1ECEF2EF0E0AA
:10075000FF2EF02D0F2EF3EC6F2EF0E07F2EF02DFC
:100760000F2EFEE54F2EF1E05F2EF02DAA24BB24C4
:100770006894A2F8A40CB51C0F2EF4ED2F2EF0E017
:100780003F2EF02D0E945802C4010E941F0281E0FA
:1007900060E00E9435028FEF92E5A7E08150904023
:1007A000A040E1F700C0000010E00DC0C7010E94AA
:1007B0001F028FEF92E5A7E081509040A040E1F743
:1007C00000C000001F5F0E948D00F601E10FF11DC7
:1007D00080838D3059F78FE79AE1A6E081509040F1
:1007E000A040E1F700C000000E945802C3010E942F
:1007F0001F0281E060E00E94350210E00DC0C701D9
:100800000E941F028FEF92E5A7E081509040A04028
:10081000E1F700C000001F5F0E948D00E1E0F0E002
:10082000EC0FFD1FE10FF11D80838D3041F7153076
:10083000B9F00E945802C1010E941F0281E060E0ED
:100840000E94350283EE90E00E941F028FEF99E62E
:10085000A8E181509040A040E1F700C0000092CF95
:100860000E945802D6019C918981981769F4D2019F
:10087000FE0132969D918191981741F4AA15BB050E
:10088000C9F70023E1F003C001E001C001E00E94CC
:10089000580280EF90E00E941F0281E060E00E9419
:1008A000350281E091E00E941F028FEF99E6A8E1F6
:1008B00081509040A040E1F700C0000063CF0F904E
:1008C0000F900F900F900F90DF91CF911F910F918C
:1008D000FF90EF90DF90CF90BF90AF909F908F9060
:1008E0007F906F905F904F903F902F9008954F9220
:1008F0005F926F927F928F929F92BF92CF92DF9280
:10090000EF92FF920F931F93CF93DF9300D000D00D
:100910000F92CDB7DEB70F2EF3E0BF2EF02D0F2EC6
:10092000F7E08F2EF1E09F2EF02D0F2EF1ECEF2E41
:10093000F0E0FF2EF02D0F2EF6E0CF2EDD24F02D6F
:10094000CC0EDD1E0F2EF7E26F2EF1E07F2EF02D84
:100950000F2EF2E34F2EF1E05F2EF02D0E94580291
:10096000C4010E941F0281E060E00E94350210E095
:100970000DC01F5FC7010E941F028FEF92E5A7E025
:1009800081509040A040E1F700C000000E948D001F
:10099000E1E0F0E0EC0FFD1FE10FF11D80838D30F1
:1009A00041F784E10E942D030E9431038737E1F76C
:1009B0008E010F5F1F4FD8018D918D010E942D0375
:1009C0000C151D05C1F70E9431038737E1F70E941E
:1009D0003103883121F5BA9471F40E94580286E1FE
:1009E00091E00E941F0281E060E040E251E00E943D
:1009F0004D0280E015C00E945802C3010E941F02F0
:100A000081E060E0A2010E944D028FEF99E6A8E12B
:100A100081509040A040E1F700C000009FCF81E0EE
:100A20000F900F900F900F900F90DF91CF911F912B
:100A30000F91FF90EF90DF90CF90BF909F908F909D
:100A40007F906F905F904F900895EF92FF920F9379
:100A50001F93CF93DF9300D000D00F92CDB7DEB7B6
:100A60000E94580280E491E00E941F0281E060E051
:100A70000E94350200E00F2EF1ECEF2EF0E0FF2E89
:100A8000F02D0DC00F5FC7010E941F028FEF92E58E
:100A9000A7E081509040A040E1F700C000000E9414
:100AA0008D00E1E0F0E0EC0FFD1FE00FF11D808311
:100AB0008D3041F781E40E942D030E943103873776
:100AC000E1F78E010F5F1F4F0F2EF6E0EF2EFF2490
:100AD000F02DEC0EFD1ED8018D918D010E942D038D
:100AE0000E151F05C1F70E9431038737E1F70E94F9
:100AF0003103883189F40E9458028EE491E00E940B
:100B00001F028FEF99E6A8E181509040A040E1F7E5
:100B100000C0000080E003C00E94790381E00F90D4
:100B20000F900F900F900F90DF91CF911F910F9129
:100B3000FF90EF900895629FD001739FF001829F14
:100B4000E00DF11D649FE00DF11D929FF00D839F5C
:100B5000F00D749FF00D659FF00D9927729FB00DF9
:100B6000E11DF91F639FB00DE11DF91FBD01CF010C
:100B700011240895FB019F01E8944230C4F04532EE
:100B8000B4F44A3029F497FB1EF4909581959F4F59
:100B9000642F77270E94EB05805D8A330CF0895D16
:100BA0008193CB010097A1F716F45DE25193108277
:100BB000C9010C94DB05DC01FC01672F71917723DF
:100BC000E1F7329704C07C916D9370836291AE1708
:100BD000BF07C8F30895AA1BBB1B51E107C0AA1F9A
:100BE000BB1FA617B70710F0A61BB70B881F991FCE
:100BF0005A95A9F780959095BC01CD010895F89478
:020C0000FFCF24
:100C0200446F6F7220697300756E6C6F636B696EEF
:100C120067006C6F636B696E6700506C656173652A
:100C220020577269746500612076616C6964206B7B
:100C32006579002A3A4F70656E20446F6F72002307
:100C42003A6368616E67652070617373776F72646F
:100C520000456E746572206E657720706173733A19
:100C6200002A0052656E74657220746865205061B6
:100C720073733A0050617373776F7264204D7573AA
:100C8200742000426520352044696769747321002D
:100C920050617373776F726420646F65736E27742B
:100CA200006D6174636800456E74657220506173F3
:100CB20073776F72640041636365737320697300B5
:100CC20044656E6965640057726F6E672050617388
:100CD2007300456E74657220616E6F746865720090
:100CE2004F6C642050617373776F72643A004E6F79
:0C0CF20074204D617463682021001F0015
:00000001FF
