:100000000C942A000C9447000C9447000C94470071
:100010000C9447000C9447000C9447000C94560233
:100020000C9447000C9447000C9447000C94470034
:100030000C9447000C9447000C9447000C94470024
:100040000C9447000C9447000C9447000C94470014
:100050000C94470011241FBECFE5D8E0DEBFCDBF12
:1000600010E0A0E6B0E0E6EAF5E002C005900D92EF
:10007000A436B107D9F710E0A4E6B0E001C01D92A4
:10008000AB36B107E1F70E9403010C94D1020C9446
:1000900000000E94D30008951F93CF93DF93EC01DB
:1000A000162F0E94DA000E94F800883009F5CE0170
:1000B00080709770880F892F881F990B9195806A9F
:1000C0000E94E3000E94F8008831A1F48C2F0E9466
:1000D000E3000E94F800883279F4812F0E94E30047
:1000E0000E94F800883251F40E94E00081E007C0CD
:1000F00080E005C080E003C080E001C080E0DF91C7
:10010000CF911F910895EF92FF920F931F93CF937A
:10011000DF938C017B010E94DA000E94F800883096
:1001200081F5E801CC0FCD2FCC1FDD0BD195CE7022
:100130008C2F806A0E94E3000E94F800883119F534
:10014000802F0E94E3000E94F8008832F1F40E94A0
:10015000DA000E94F8008031D1F48C2F816A0E946D
:10016000E3000E94F8008034A1F40E94F100F7013E
:1001700080830E94F800883571F40E94E00081E0DD
:100180000BC080E009C080E007C080E005C080E0CF
:1001900003C080E001C080E0DF91CF911F910F91FB
:1001A000FF90EF90089582E080B911B882B984E0A1
:1001B00086BF089584EA86BF06B607FEFDCF089580
:1001C00084E986BF089583B984E886BF06B607FE32
:1001D000FDCF089584EC86BF06B607FEFDCF83B140
:1001E000089584E886BF06B607FEFDCF83B1089563
:1001F00081B1887F089585E086BF7894089586B799
:100200008E7F86BF0895CF93DF9300D000D00F92EA
:10021000CDB7DEB70E948A020E9449008D9A8E9A5D
:100220008F9AA29A12BAD09AD89880916000909131
:1002300061006AE670E00E9483000E9498028130AB
:10024000E1F780916A000E94940280916A008933EC
:10025000B1F10E9498028130E1F70F2EF5E6EF2E02
:10026000F0E0FF2EF02D87010B5F1F4F67010E940A
:100270009802F60181936F01E017F107C1F700E0E2
:1002800010E0F70161917F0180916200909163001D
:10029000800F911F0E944C008FE19EE40197F1F7BF
:1002A00000C000000F5F1F4F0530110551F780910E
:1002B00060009091610069E30E944C0012C000E070
:1002C00010E08091620090916300B8016B597F4FFC
:1002D000800F911F0E9483000F5F1F4F0530110593
:1002E00081F70F2EF6E0CF2EDD24F02DCC0EDD1E93
:1002F0000F2EF5E66F2EF0E07F2EF02D0F2EF6E696
:100300004F2EF0E05F2EF02DBB24B3940F2EF5E0BE
:100310008F2E9924F02D860C971CA62C372C0E942A
:100320009802843169F587E70E9494028E010F5F7D
:100330001F4F0E949802F80181938F01EC15FD0573
:10034000C1F79981F3018081981709F09FC0FE01E0
:100350003296D2011B2D91918D91981721F41F5F38
:100360001530C9F79BC087E70E949402153021F031
:1003700088E10E949402D3CF87E70E949402CFCFF6
:100380008532B9F4979A9698959A88E90E949402D2
:100390008AE00E947E029598969A80E40E949402D8
:1003A0008AE00E947E029598969887E70E949402C0
:1003B000B6CF883869F4AA9A8B2D0E947E02AA983B
:1003C0008BE30E947E02AA9A87E70E949402A7CF3D
:1003D000813409F0A4CF87E70E9494028E010F5F59
:1003E0001F4F0E949802F80181938F01EC15FD05C3
:1003F000C1F79981F3018081981709F04BC0FE0184
:100400003296D2011B2D91918D91981721F41F5F87
:100410001530C9F747C087E70E949402153021F0D4
:1004200088E10E9494027BCF87E70E9494020E9499
:1004300098028130E1F773010A2D132D0E94980272
:10044000F80181938F01E815F905C1F700E010E08C
:10045000F70161917F018091620090916300800FAC
:10046000911F0E944C008FE19EE40197F1F700C0BC
:1004700000000F5F1F4F0530110551F7809160009C
:100480009091610069E30E944C0049CF87E70E9488
:1004900094026ECF87E70E949402C2CF87E70E9442
:1004A00094026ACF87E70E949402BECF1F920F92F8
:1004B0000FB60F9211248F93809164008F5F809309
:1004C00064008F910F900FBE0F901F901895789435
:1004D0001DBC1CBC8FB588608FBD8EB58D608EBD78
:1004E00080E189BF83E89EE19BBD8ABD10926400D4
:1004F000089589B78F7E89BFF8940895CF93C82F48
:100500000E946702809164008C17E0F30E947902D8
:10051000CF91089582E08BB988E18AB986E880BDE1
:1005200010BC87E689B908955D9BFECF8CB908950C
:100530005F9BFECF8CB108950F931F93CF938C01D7
:10054000FC018081882351F0C0E00E949402CF5FBB
:10055000F801EC0FF11D80818823B9F7CF911F912D
:100560000F910895FF920F931F93CF93DF938C0108
:100570000E949802F8018083833259F0FF24F3949B
:10058000E801CF0DD11D0E94980288838332B9F70C
:1005900001C0E8011882DF91CF911F910F91FF9068
:0605A0000895F894FFCF5E
:0405A600FF033F010F
:00000001FF
